{
  "_format": "hh-sol-artifact-1",
  "contractName": "Lottery",
  "sourceName": "contracts/Lottery.sol",
  "abi": [
    {
      "inputs": [
        {
          "internalType": "address",
          "name": "vrfCoordinatorV2",
          "type": "address"
        },
        {
          "internalType": "bytes32",
          "name": "gasLane",
          "type": "bytes32"
        },
        {
          "internalType": "uint32",
          "name": "callbackGasLimit",
          "type": "uint32"
        },
        {
          "internalType": "uint64",
          "name": "subscriptionId",
          "type": "uint64"
        },
        {
          "internalType": "uint256",
          "name": "entranceFee",
          "type": "uint256"
        }
      ],
      "stateMutability": "nonpayable",
      "type": "constructor"
    },
    {
      "inputs": [],
      "name": "Lottery__NotEnoughETH",
      "type": "error"
    },
    {
      "inputs": [
        {
          "internalType": "address",
          "name": "have",
          "type": "address"
        },
        {
          "internalType": "address",
          "name": "want",
          "type": "address"
        }
      ],
      "name": "OnlyCoordinatorCanFulfill",
      "type": "error"
    },
    {
      "inputs": [],
      "name": "Raffle__TransferFailed",
      "type": "error"
    },
    {
      "anonymous": false,
      "inputs": [
        {
          "indexed": true,
          "internalType": "address",
          "name": "player",
          "type": "address"
        }
      ],
      "name": "EnterLottery",
      "type": "event"
    },
    {
      "anonymous": false,
      "inputs": [
        {
          "indexed": true,
          "internalType": "uint256",
          "name": "requestId",
          "type": "uint256"
        }
      ],
      "name": "RequestedLotteryWinner",
      "type": "event"
    },
    {
      "anonymous": false,
      "inputs": [
        {
          "indexed": false,
          "internalType": "address",
          "name": "recentWinner",
          "type": "address"
        }
      ],
      "name": "WinnerPicked",
      "type": "event"
    },
    {
      "inputs": [],
      "name": "enterLottery",
      "outputs": [],
      "stateMutability": "payable",
      "type": "function"
    },
    {
      "inputs": [],
      "name": "getEntranceFee",
      "outputs": [
        {
          "internalType": "uint256",
          "name": "",
          "type": "uint256"
        }
      ],
      "stateMutability": "view",
      "type": "function"
    },
    {
      "inputs": [
        {
          "internalType": "uint256",
          "name": "index",
          "type": "uint256"
        }
      ],
      "name": "getPlayer",
      "outputs": [
        {
          "internalType": "address",
          "name": "",
          "type": "address"
        }
      ],
      "stateMutability": "view",
      "type": "function"
    },
    {
      "inputs": [],
      "name": "getWinners",
      "outputs": [
        {
          "internalType": "address",
          "name": "",
          "type": "address"
        }
      ],
      "stateMutability": "view",
      "type": "function"
    },
    {
      "inputs": [
        {
          "internalType": "uint256",
          "name": "requestId",
          "type": "uint256"
        },
        {
          "internalType": "uint256[]",
          "name": "randomWords",
          "type": "uint256[]"
        }
      ],
      "name": "rawFulfillRandomWords",
      "outputs": [],
      "stateMutability": "nonpayable",
      "type": "function"
    },
    {
      "inputs": [],
      "name": "requestRandomWinner",
      "outputs": [],
      "stateMutability": "nonpayable",
      "type": "function"
    }
  ],
  "bytecode": "0x6101406040523480156200001257600080fd5b5060405162000f0738038062000f07833981810160405281019062000038919062000255565b848073ffffffffffffffffffffffffffffffffffffffff1660808173ffffffffffffffffffffffffffffffffffffffff1681525050508360e081815250508167ffffffffffffffff166101008167ffffffffffffffff16815250508060a081815250508263ffffffff166101208163ffffffff16815250508473ffffffffffffffffffffffffffffffffffffffff1660c08173ffffffffffffffffffffffffffffffffffffffff16815250505050505050620002dd565b600080fd5b600073ffffffffffffffffffffffffffffffffffffffff82169050919050565b60006200012182620000f4565b9050919050565b620001338162000114565b81146200013f57600080fd5b50565b600081519050620001538162000128565b92915050565b6000819050919050565b6200016e8162000159565b81146200017a57600080fd5b50565b6000815190506200018e8162000163565b92915050565b600063ffffffff82169050919050565b620001af8162000194565b8114620001bb57600080fd5b50565b600081519050620001cf81620001a4565b92915050565b600067ffffffffffffffff82169050919050565b620001f481620001d5565b81146200020057600080fd5b50565b6000815190506200021481620001e9565b92915050565b6000819050919050565b6200022f816200021a565b81146200023b57600080fd5b50565b6000815190506200024f8162000224565b92915050565b600080600080600060a08688031215620002745762000273620000ef565b5b6000620002848882890162000142565b955050602062000297888289016200017d565b9450506040620002aa88828901620001be565b9350506060620002bd8882890162000203565b9250506080620002d0888289016200023e565b9150509295509295909350565b60805160a05160c05160e0516101005161012051610bcc6200033b60003960006102a3015260006102800152600061025f0152600061022301526000818161013b015261035b01526000818161016101526101b50152610bcc6000f3fe6080604052600436106100555760003560e01c806309bc33a71461005a5780631fe543e314610085578063522a1f0b146100ae578063c1af5785146100c5578063df15c37e146100cf578063e55ae4e8146100fa575b600080fd5b34801561006657600080fd5b5061006f610137565b60405161007c9190610678565b60405180910390f35b34801561009157600080fd5b506100ac60048036038101906100a7919061082c565b61015f565b005b3480156100ba57600080fd5b506100c361021f565b005b6100cd610359565b005b3480156100db57600080fd5b506100e461045b565b6040516100f191906108c9565b60405180910390f35b34801561010657600080fd5b50610121600480360381019061011c91906108e4565b610485565b60405161012e91906108c9565b60405180910390f35b60007f0000000000000000000000000000000000000000000000000000000000000000905090565b7f000000000000000000000000000000000000000000000000000000000000000073ffffffffffffffffffffffffffffffffffffffff163373ffffffffffffffffffffffffffffffffffffffff161461021157337f00000000000000000000000000000000000000000000000000000000000000006040517f1cf993f4000000000000000000000000000000000000000000000000000000008152600401610208929190610911565b60405180910390fd5b61021b82826104cc565b5050565b60007f000000000000000000000000000000000000000000000000000000000000000073ffffffffffffffffffffffffffffffffffffffff16635d3b1d307f00000000000000000000000000000000000000000000000000000000000000007f000000000000000000000000000000000000000000000000000000000000000060037f000000000000000000000000000000000000000000000000000000000000000060016040518663ffffffff1660e01b81526004016102e49594939291906109b2565b6020604051808303816000875af1158015610303573d6000803e3d6000fd5b505050506040513d601f19601f820116820180604052508101906103279190610a1a565b9050807febf56642252004c18a776f30d528e7a0ce8c5db14b6596fb6550f630c8a24c6c60405160405180910390a250565b7f00000000000000000000000000000000000000000000000000000000000000003411156103b3576040517f6844f56200000000000000000000000000000000000000000000000000000000815260040160405180910390fd5b6000339080600181540180825580915050600190039060005260206000200160009091909190916101000a81548173ffffffffffffffffffffffffffffffffffffffff021916908373ffffffffffffffffffffffffffffffffffffffff1602179055503373ffffffffffffffffffffffffffffffffffffffff167fde7ffaf8976e3b39d4fb74cd196ccae530bbcc6539e8f8e5db2cc61ef21b9ac260405160405180910390a2565b6000600160009054906101000a900473ffffffffffffffffffffffffffffffffffffffff16905090565b600080828154811061049a57610499610a47565b5b9060005260206000200160009054906101000a900473ffffffffffffffffffffffffffffffffffffffff169050919050565b60008080549050826000815181106104e7576104e6610a47565b5b60200260200101516104f99190610aa5565b905060008082815481106105105761050f610a47565b5b9060005260206000200160009054906101000a900473ffffffffffffffffffffffffffffffffffffffff16905080600160006101000a81548173ffffffffffffffffffffffffffffffffffffffff021916908373ffffffffffffffffffffffffffffffffffffffff16021790555060008173ffffffffffffffffffffffffffffffffffffffff16476040516105a490610b07565b60006040518083038185875af1925050503d80600081146105e1576040519150601f19603f3d011682016040523d82523d6000602084013e6105e6565b606091505b5050905080610621576040517fa1d04b3900000000000000000000000000000000000000000000000000000000815260040160405180910390fd5b7f5b690ec4a06fe979403046eaeea5b3ce38524683c3001f662c8b5a829632f7df826040516106509190610b7b565b60405180910390a15050505050565b6000819050919050565b6106728161065f565b82525050565b600060208201905061068d6000830184610669565b92915050565b6000604051905090565b600080fd5b600080fd5b6106b08161065f565b81146106bb57600080fd5b50565b6000813590506106cd816106a7565b92915050565b600080fd5b6000601f19601f8301169050919050565b7f4e487b7100000000000000000000000000000000000000000000000000000000600052604160045260246000fd5b610721826106d8565b810181811067ffffffffffffffff821117156107405761073f6106e9565b5b80604052505050565b6000610753610693565b905061075f8282610718565b919050565b600067ffffffffffffffff82111561077f5761077e6106e9565b5b602082029050602081019050919050565b600080fd5b60006107a86107a384610764565b610749565b905080838252602082019050602084028301858111156107cb576107ca610790565b5b835b818110156107f457806107e088826106be565b8452602084019350506020810190506107cd565b5050509392505050565b600082601f830112610813576108126106d3565b5b8135610823848260208601610795565b91505092915050565b600080604083850312156108435761084261069d565b5b6000610851858286016106be565b925050602083013567ffffffffffffffff811115610872576108716106a2565b5b61087e858286016107fe565b9150509250929050565b600073ffffffffffffffffffffffffffffffffffffffff82169050919050565b60006108b382610888565b9050919050565b6108c3816108a8565b82525050565b60006020820190506108de60008301846108ba565b92915050565b6000602082840312156108fa576108f961069d565b5b6000610908848285016106be565b91505092915050565b600060408201905061092660008301856108ba565b61093360208301846108ba565b9392505050565b6000819050919050565b61094d8161093a565b82525050565b600067ffffffffffffffff82169050919050565b61097081610953565b82525050565b600061ffff82169050919050565b61098d81610976565b82525050565b600063ffffffff82169050919050565b6109ac81610993565b82525050565b600060a0820190506109c76000830188610944565b6109d46020830187610967565b6109e16040830186610984565b6109ee60608301856109a3565b6109fb60808301846109a3565b9695505050505050565b600081519050610a14816106a7565b92915050565b600060208284031215610a3057610a2f61069d565b5b6000610a3e84828501610a05565b91505092915050565b7f4e487b7100000000000000000000000000000000000000000000000000000000600052603260045260246000fd5b7f4e487b7100000000000000000000000000000000000000000000000000000000600052601260045260246000fd5b6000610ab08261065f565b9150610abb8361065f565b925082610acb57610aca610a76565b5b828206905092915050565b600081905092915050565b50565b6000610af1600083610ad6565b9150610afc82610ae1565b600082019050919050565b6000610b1282610ae4565b9150819050919050565b6000819050919050565b6000610b41610b3c610b3784610888565b610b1c565b610888565b9050919050565b6000610b5382610b26565b9050919050565b6000610b6582610b48565b9050919050565b610b7581610b5a565b82525050565b6000602082019050610b906000830184610b6c565b9291505056fea2646970667358221220911931f9d4152b9a057e93264cce8ce0ee200fcca95644af0ca3cd5731a299a364736f6c63430008110033",
  "linkReferences": {},
  "deployedLinkReferences": {}
}