{
  "_format": "hh-sol-artifact-1",
  "contractName": "Lottery",
  "sourceName": "contracts/Lottery.sol",
  "abi": [
    {
      "inputs": [
        {
          "internalType": "address",
          "name": "vrfCoordinatorV2",
          "type": "address"
        },
        {
          "internalType": "uint256",
          "name": "entranceFee",
          "type": "uint256"
        },
        {
          "internalType": "bytes32",
          "name": "gasLane",
          "type": "bytes32"
        },
        {
          "internalType": "uint32",
          "name": "callbackGasLimit",
          "type": "uint32"
        },
        {
          "internalType": "uint64",
          "name": "subscriptionId",
          "type": "uint64"
        },
        {
          "internalType": "uint256",
          "name": "interval",
          "type": "uint256"
        }
      ],
      "stateMutability": "nonpayable",
      "type": "constructor"
    },
    {
      "inputs": [],
      "name": "Lottery__NotEnoughETH",
      "type": "error"
    },
    {
      "inputs": [],
      "name": "Lottery__NotOpen",
      "type": "error"
    },
    {
      "inputs": [],
      "name": "Lottery__TransferFailed",
      "type": "error"
    },
    {
      "inputs": [
        {
          "internalType": "uint256",
          "name": "currentBalance",
          "type": "uint256"
        },
        {
          "internalType": "uint256",
          "name": "numPlayers",
          "type": "uint256"
        },
        {
          "internalType": "uint256",
          "name": "lotteryState",
          "type": "uint256"
        }
      ],
      "name": "Lottery__UpkeepNotNeeded",
      "type": "error"
    },
    {
      "inputs": [
        {
          "internalType": "address",
          "name": "have",
          "type": "address"
        },
        {
          "internalType": "address",
          "name": "want",
          "type": "address"
        }
      ],
      "name": "OnlyCoordinatorCanFulfill",
      "type": "error"
    },
    {
      "anonymous": false,
      "inputs": [
        {
          "indexed": true,
          "internalType": "address",
          "name": "player",
          "type": "address"
        }
      ],
      "name": "EnterLottery",
      "type": "event"
    },
    {
      "anonymous": false,
      "inputs": [
        {
          "indexed": true,
          "internalType": "uint256",
          "name": "requestId",
          "type": "uint256"
        }
      ],
      "name": "RequestedLotteryWinner",
      "type": "event"
    },
    {
      "anonymous": false,
      "inputs": [
        {
          "indexed": true,
          "internalType": "address",
          "name": "winner",
          "type": "address"
        }
      ],
      "name": "WinnerPicked",
      "type": "event"
    },
    {
      "inputs": [
        {
          "internalType": "bytes",
          "name": "",
          "type": "bytes"
        }
      ],
      "name": "checkUpkeep",
      "outputs": [
        {
          "internalType": "bool",
          "name": "upkeedNeeded",
          "type": "bool"
        },
        {
          "internalType": "bytes",
          "name": "",
          "type": "bytes"
        }
      ],
      "stateMutability": "nonpayable",
      "type": "function"
    },
    {
      "inputs": [],
      "name": "enterLottery",
      "outputs": [],
      "stateMutability": "payable",
      "type": "function"
    },
    {
      "inputs": [],
      "name": "getEntranceFee",
      "outputs": [
        {
          "internalType": "uint256",
          "name": "",
          "type": "uint256"
        }
      ],
      "stateMutability": "view",
      "type": "function"
    },
    {
      "inputs": [],
      "name": "getInterval",
      "outputs": [
        {
          "internalType": "uint256",
          "name": "",
          "type": "uint256"
        }
      ],
      "stateMutability": "view",
      "type": "function"
    },
    {
      "inputs": [],
      "name": "getLatestTimeStamp",
      "outputs": [
        {
          "internalType": "uint256",
          "name": "",
          "type": "uint256"
        }
      ],
      "stateMutability": "view",
      "type": "function"
    },
    {
      "inputs": [],
      "name": "getLotteryState",
      "outputs": [
        {
          "internalType": "enum Lottery.LotteryState",
          "name": "",
          "type": "uint8"
        }
      ],
      "stateMutability": "view",
      "type": "function"
    },
    {
      "inputs": [],
      "name": "getNumWords",
      "outputs": [
        {
          "internalType": "uint256",
          "name": "",
          "type": "uint256"
        }
      ],
      "stateMutability": "pure",
      "type": "function"
    },
    {
      "inputs": [],
      "name": "getNumberOfPlayers",
      "outputs": [
        {
          "internalType": "uint256",
          "name": "",
          "type": "uint256"
        }
      ],
      "stateMutability": "view",
      "type": "function"
    },
    {
      "inputs": [
        {
          "internalType": "uint256",
          "name": "index",
          "type": "uint256"
        }
      ],
      "name": "getPlayer",
      "outputs": [
        {
          "internalType": "address",
          "name": "",
          "type": "address"
        }
      ],
      "stateMutability": "view",
      "type": "function"
    },
    {
      "inputs": [],
      "name": "getRequestConfirmations",
      "outputs": [
        {
          "internalType": "uint256",
          "name": "",
          "type": "uint256"
        }
      ],
      "stateMutability": "pure",
      "type": "function"
    },
    {
      "inputs": [],
      "name": "getWinners",
      "outputs": [
        {
          "internalType": "address",
          "name": "",
          "type": "address"
        }
      ],
      "stateMutability": "view",
      "type": "function"
    },
    {
      "inputs": [
        {
          "internalType": "bytes",
          "name": "",
          "type": "bytes"
        }
      ],
      "name": "performUpkeep",
      "outputs": [],
      "stateMutability": "nonpayable",
      "type": "function"
    },
    {
      "inputs": [
        {
          "internalType": "uint256",
          "name": "requestId",
          "type": "uint256"
        },
        {
          "internalType": "uint256[]",
          "name": "randomWords",
          "type": "uint256[]"
        }
      ],
      "name": "rawFulfillRandomWords",
      "outputs": [],
      "stateMutability": "nonpayable",
      "type": "function"
    }
  ],
  "bytecode": "0x6101606040523480156200001257600080fd5b5060405162001832380380620018328339818101604052810190620000389190620002a0565b858073ffffffffffffffffffffffffffffffffffffffff1660808173ffffffffffffffffffffffffffffffffffffffff1660601b81525050508573ffffffffffffffffffffffffffffffffffffffff1660c08173ffffffffffffffffffffffffffffffffffffffff1660601b815250508460a081815250508360e081815250508167ffffffffffffffff166101008167ffffffffffffffff1660c01b815250508263ffffffff166101208163ffffffff1660e01b815250506000600160146101000a81548160ff021916908360018111156200011957620001186200033c565b5b0217905550426002819055508061014081815250505050505050506200036b565b600080fd5b600073ffffffffffffffffffffffffffffffffffffffff82169050919050565b60006200016c826200013f565b9050919050565b6200017e816200015f565b81146200018a57600080fd5b50565b6000815190506200019e8162000173565b92915050565b6000819050919050565b620001b981620001a4565b8114620001c557600080fd5b50565b600081519050620001d981620001ae565b92915050565b6000819050919050565b620001f481620001df565b81146200020057600080fd5b50565b6000815190506200021481620001e9565b92915050565b600063ffffffff82169050919050565b62000235816200021a565b81146200024157600080fd5b50565b60008151905062000255816200022a565b92915050565b600067ffffffffffffffff82169050919050565b6200027a816200025b565b81146200028657600080fd5b50565b6000815190506200029a816200026f565b92915050565b60008060008060008060c08789031215620002c057620002bf6200013a565b5b6000620002d089828a016200018d565b9650506020620002e389828a01620001c8565b9550506040620002f689828a0162000203565b94505060606200030989828a0162000244565b93505060806200031c89828a0162000289565b92505060a06200032f89828a01620001c8565b9150509295509295509295565b7f4e487b7100000000000000000000000000000000000000000000000000000000600052602160045260246000fd5b60805160601c60a05160c05160601c60e0516101005160c01c6101205160e01c6101405161144b620003e76000396000818161065d01526106cb0152600061051f015260006104fc015260006104db0152600061049f0152600081816102fa01526106f10152600081816103200152610374015261144b6000f3fe6080604052600436106100c25760003560e01c80636b68c03c1161007f578063c1af578511610059578063c1af578514610259578063df15c37e14610263578063e55ae4e81461028e578063fd6673f5146102cb576100c2565b80636b68c03c146101c55780636e04ff0d146101f057806391ad27b41461022e576100c2565b806309bc33a7146100c75780631fe543e3146100f2578063320229eb1461011b5780634585e33b1461014657806353a2c19a1461016f5780635f1b0fd81461019a575b600080fd5b3480156100d357600080fd5b506100dc6102f6565b6040516100e99190610bcc565b60405180910390f35b3480156100fe57600080fd5b5061011960048036038101906101149190610d80565b61031e565b005b34801561012757600080fd5b506101306103de565b60405161013d9190610bcc565b60405180910390f35b34801561015257600080fd5b5061016d60048036038101906101689190610e37565b6103e8565b005b34801561017b57600080fd5b506101846105e7565b6040516101919190610bcc565b60405180910390f35b3480156101a657600080fd5b506101af6105f6565b6040516101bc9190610bcc565b60405180910390f35b3480156101d157600080fd5b506101da610603565b6040516101e79190610efb565b60405180910390f35b3480156101fc57600080fd5b5061021760048036038101906102129190610fcb565b61061a565b6040516102259291906110b7565b60405180910390f35b34801561023a57600080fd5b506102436106c7565b6040516102509190610bcc565b60405180910390f35b6102616106ef565b005b34801561026f57600080fd5b5061027861085e565b6040516102859190611128565b60405180910390f35b34801561029a57600080fd5b506102b560048036038101906102b09190611143565b610888565b6040516102c29190611128565b60405180910390f35b3480156102d757600080fd5b506102e06108cf565b6040516102ed9190610bcc565b60405180910390f35b60007f0000000000000000000000000000000000000000000000000000000000000000905090565b7f000000000000000000000000000000000000000000000000000000000000000073ffffffffffffffffffffffffffffffffffffffff163373ffffffffffffffffffffffffffffffffffffffff16146103d057337f00000000000000000000000000000000000000000000000000000000000000006040517f1cf993f40000000000000000000000000000000000000000000000000000000081526004016103c7929190611170565b60405180910390fd5b6103da82826108db565b5050565b6000600254905090565b60006104026040518060200160405280600081525061061a565b509050806104715747600080549050600160149054906101000a900460ff16600181111561043357610432610e84565b5b6040517f6e195f2500000000000000000000000000000000000000000000000000000000815260040161046893929190611199565b60405180910390fd5b60018060146101000a81548160ff0219169083600181111561049657610495610e84565b5b021790555060007f000000000000000000000000000000000000000000000000000000000000000073ffffffffffffffffffffffffffffffffffffffff16635d3b1d307f00000000000000000000000000000000000000000000000000000000000000007f000000000000000000000000000000000000000000000000000000000000000060037f000000000000000000000000000000000000000000000000000000000000000060016040518663ffffffff1660e01b8152600401610560959493929190611248565b602060405180830381600087803b15801561057a57600080fd5b505af115801561058e573d6000803e3d6000fd5b505050506040513d601f19601f820116820180604052508101906105b291906112b0565b9050807febf56642252004c18a776f30d528e7a0ce8c5db14b6596fb6550f630c8a24c6c60405160405180910390a250505050565b6000600163ffffffff16905090565b6000600361ffff16905090565b6000600160149054906101000a900460ff16905090565b600060606000600160149054906101000a900460ff16600181111561064257610641610e84565b5b6000600181111561065657610655610e84565b5b14905060007f00000000000000000000000000000000000000000000000000000000000000006002544261068a919061130c565b119050600080600080549050119050600080471190508380156106aa5750825b80156106b35750815b80156106bc5750805b955050505050915091565b60007f0000000000000000000000000000000000000000000000000000000000000000905090565b7f0000000000000000000000000000000000000000000000000000000000000000341115610749576040517f6844f56200000000000000000000000000000000000000000000000000000000815260040160405180910390fd5b6000600181111561075d5761075c610e84565b5b600160149054906101000a900460ff16600181111561077f5761077e610e84565b5b146107b6576040517fe76be6fc00000000000000000000000000000000000000000000000000000000815260040160405180910390fd5b6000339080600181540180825580915050600190039060005260206000200160009091909190916101000a81548173ffffffffffffffffffffffffffffffffffffffff021916908373ffffffffffffffffffffffffffffffffffffffff1602179055503373ffffffffffffffffffffffffffffffffffffffff167fde7ffaf8976e3b39d4fb74cd196ccae530bbcc6539e8f8e5db2cc61ef21b9ac260405160405180910390a2565b6000600160009054906101000a900473ffffffffffffffffffffffffffffffffffffffff16905090565b600080828154811061089d5761089c611340565b5b9060005260206000200160009054906101000a900473ffffffffffffffffffffffffffffffffffffffff169050919050565b60008080549050905090565b60008080549050826000815181106108f6576108f5611340565b5b6020026020010151610908919061139e565b9050600080828154811061091f5761091e611340565b5b9060005260206000200160009054906101000a900473ffffffffffffffffffffffffffffffffffffffff16905080600160006101000a81548173ffffffffffffffffffffffffffffffffffffffff021916908373ffffffffffffffffffffffffffffffffffffffff1602179055506000600160146101000a81548160ff021916908360018111156109b3576109b2610e84565b5b0217905550600067ffffffffffffffff8111156109d3576109d2610c3d565b5b604051908082528060200260200182016040528015610a015781602001602082028036833780820191505090505b5060009080519060200190610a17929190610b0c565b504260028190555060008173ffffffffffffffffffffffffffffffffffffffff1647604051610a4590611400565b60006040518083038185875af1925050503d8060008114610a82576040519150601f19603f3d011682016040523d82523d6000602084013e610a87565b606091505b5050905080610ac2576040517f1c94012000000000000000000000000000000000000000000000000000000000815260040160405180910390fd5b8173ffffffffffffffffffffffffffffffffffffffff167f5b690ec4a06fe979403046eaeea5b3ce38524683c3001f662c8b5a829632f7df60405160405180910390a25050505050565b828054828255906000526020600020908101928215610b85579160200282015b82811115610b845782518260006101000a81548173ffffffffffffffffffffffffffffffffffffffff021916908373ffffffffffffffffffffffffffffffffffffffff16021790555091602001919060010190610b2c565b5b509050610b929190610b96565b5090565b5b80821115610baf576000816000905550600101610b97565b5090565b6000819050919050565b610bc681610bb3565b82525050565b6000602082019050610be16000830184610bbd565b92915050565b6000604051905090565b600080fd5b600080fd5b610c0481610bb3565b8114610c0f57600080fd5b50565b600081359050610c2181610bfb565b92915050565b600080fd5b6000601f19601f8301169050919050565b7f4e487b7100000000000000000000000000000000000000000000000000000000600052604160045260246000fd5b610c7582610c2c565b810181811067ffffffffffffffff82111715610c9457610c93610c3d565b5b80604052505050565b6000610ca7610be7565b9050610cb38282610c6c565b919050565b600067ffffffffffffffff821115610cd357610cd2610c3d565b5b602082029050602081019050919050565b600080fd5b6000610cfc610cf784610cb8565b610c9d565b90508083825260208201905060208402830185811115610d1f57610d1e610ce4565b5b835b81811015610d485780610d348882610c12565b845260208401935050602081019050610d21565b5050509392505050565b600082601f830112610d6757610d66610c27565b5b8135610d77848260208601610ce9565b91505092915050565b60008060408385031215610d9757610d96610bf1565b5b6000610da585828601610c12565b925050602083013567ffffffffffffffff811115610dc657610dc5610bf6565b5b610dd285828601610d52565b9150509250929050565b600080fd5b60008083601f840112610df757610df6610c27565b5b8235905067ffffffffffffffff811115610e1457610e13610ddc565b5b602083019150836001820283011115610e3057610e2f610ce4565b5b9250929050565b60008060208385031215610e4e57610e4d610bf1565b5b600083013567ffffffffffffffff811115610e6c57610e6b610bf6565b5b610e7885828601610de1565b92509250509250929050565b7f4e487b7100000000000000000000000000000000000000000000000000000000600052602160045260246000fd5b60028110610ec457610ec3610e84565b5b50565b6000819050610ed582610eb3565b919050565b6000610ee582610ec7565b9050919050565b610ef581610eda565b82525050565b6000602082019050610f106000830184610eec565b92915050565b600080fd5b600067ffffffffffffffff821115610f3657610f35610c3d565b5b610f3f82610c2c565b9050602081019050919050565b82818337600083830152505050565b6000610f6e610f6984610f1b565b610c9d565b905082815260208101848484011115610f8a57610f89610f16565b5b610f95848285610f4c565b509392505050565b600082601f830112610fb257610fb1610c27565b5b8135610fc2848260208601610f5b565b91505092915050565b600060208284031215610fe157610fe0610bf1565b5b600082013567ffffffffffffffff811115610fff57610ffe610bf6565b5b61100b84828501610f9d565b91505092915050565b60008115159050919050565b61102981611014565b82525050565b600081519050919050565b600082825260208201905092915050565b60005b8381101561106957808201518184015260208101905061104e565b83811115611078576000848401525b50505050565b60006110898261102f565b611093818561103a565b93506110a381856020860161104b565b6110ac81610c2c565b840191505092915050565b60006040820190506110cc6000830185611020565b81810360208301526110de818461107e565b90509392505050565b600073ffffffffffffffffffffffffffffffffffffffff82169050919050565b6000611112826110e7565b9050919050565b61112281611107565b82525050565b600060208201905061113d6000830184611119565b92915050565b60006020828403121561115957611158610bf1565b5b600061116784828501610c12565b91505092915050565b60006040820190506111856000830185611119565b6111926020830184611119565b9392505050565b60006060820190506111ae6000830186610bbd565b6111bb6020830185610bbd565b6111c86040830184610bbd565b949350505050565b6000819050919050565b6111e3816111d0565b82525050565b600067ffffffffffffffff82169050919050565b611206816111e9565b82525050565b600061ffff82169050919050565b6112238161120c565b82525050565b600063ffffffff82169050919050565b61124281611229565b82525050565b600060a08201905061125d60008301886111da565b61126a60208301876111fd565b611277604083018661121a565b6112846060830185611239565b6112916080830184611239565b9695505050505050565b6000815190506112aa81610bfb565b92915050565b6000602082840312156112c6576112c5610bf1565b5b60006112d48482850161129b565b91505092915050565b7f4e487b7100000000000000000000000000000000000000000000000000000000600052601160045260246000fd5b600061131782610bb3565b915061132283610bb3565b925082821015611335576113346112dd565b5b828203905092915050565b7f4e487b7100000000000000000000000000000000000000000000000000000000600052603260045260246000fd5b7f4e487b7100000000000000000000000000000000000000000000000000000000600052601260045260246000fd5b60006113a982610bb3565b91506113b483610bb3565b9250826113c4576113c361136f565b5b828206905092915050565b600081905092915050565b50565b60006113ea6000836113cf565b91506113f5826113da565b600082019050919050565b600061140b826113dd565b915081905091905056fea2646970667358221220ff4616553caae3a7fc2d167386de37a2dac5c6bd35b97a0f1e4c67aad93d212164736f6c63430008080033",
  "linkReferences": {},
  "deployedLinkReferences": {}
}